:020000040800F2
:1000000000000220A1AA0008F1AA0008F1AA000835
:10001000F1AA0008F1AA0008F1AA000800000000F7
:10002000000000000000000000000000F1AA00082D
:10003000F1AA000800000000F1AA00081B810008D6
:10004000F1AA0008F1AA0008F1AA0008F1AA000824
:10005000F1AA0008F1AA0008158200081B82000816
:1000600021820008278200082D820008F1AA0008DA
:10007000F1AA0008F1AA0008F1AA0008F1AA0008F4
:10008000F1AA0008F1AA0008F1AA0008F1AA0008E4
:10009000F1AA0008F1AA0008F1AA000833820008BA
:1000A000756F00088D6E0008896F0008B16E00083A
:1000B000C56E0008D96E0008ED6E0008E92D000835
:1000C000F52D0008012E00080D2E0008F1AA0008E9
:1000D000F1AA0008358D00084D8D0008698D0008D3
:1000E00049820008F1AA0008E9A400089D6F0008F1
:1000F0003D6F0008B16F0008616F0008F1AA0008A9
:10010000F1AA0008F1AA0008016F0008F1AA00088E
:10011000858D00089D8D0008156F0008296F000867
:10012000F1AA0008F1AA0008F1AA0008F1AA000843
:10013000F1AA00080000000000000000F1AA000879
:10014000F1AA0008F1AA0008F1AA0008DDA400083D
:10015000F1AA0008F1AA0008F1AA0008B58D00086C
:10016000192E0008252E0008F1AA0008F1AA00089F
:10017000F1AA0008F1AA0008000000000000000039
:08018000F1AA0008F1AA000831
:10018800034613F8012B002AFBD1181A01387047CF
:1001980081F0004102E000BF83F0004330B54FEA30
:1001A80041044FEA430594EA050F08BF90EA020F9D
:1001B8001FBF54EA000C55EA020C7FEA645C7FEA30
:1001C800655C00F0E2804FEA5454D4EB5555B8BF53
:1001D8006D420CDD2C4480EA020281EA030382EAC4
:1001E800000083EA010180EA020281EA0303362D56
:1001F80088BF30BD11F0004F4FEA01314FF4801C29
:100208004CEA113102D0404261EB410113F0004F3A
:100218004FEA03334CEA133302D0524263EB4303F1
:1002280094EA050F00F0A780A4F10104D5F1200E8F
:100238000DDB02FA0EFC22FA05F2801841F10001EA
:1002480003FA0EF2801843FA05F359410EE0A5F1BE
:1002580020050EF1200E012A03FA0EFC28BF4CF0EF
:10026800020C43FA05F3C01851EBE37101F00045A5
:1002780007D54FF0000EDCF1000C7EEB00006EEBB2
:100288000101B1F5801F1BD3B1F5001F0CD349083C
:100298005FEA30004FEA3C0C04F101044FEA445293
:1002A80012F5800F80F09A80BCF1004F08BF5FEA1A
:1002B800500C50F1000041EB045141EA050130BDFA
:1002C8005FEA4C0C404141EB0101013C28BFB1F50C
:1002D800801FE9D291F0000F04BF01460020B1FA57
:1002E80081F308BF2033A3F10B03B3F120020CDA2A
:1002F8000C3208DD02F1140CC2F10C0201FA0CF008
:1003080021FA02F10CE002F11402D8BFC2F1200C6C
:1003180001FA02F120FA0CFCDCBF41EA0C01904022
:10032800E41AA2BF01EB0451294330BD6FEA04046B
:100338001F3C1CDA0C340EDC04F11404C4F1200256
:1003480020FA04F001FA02F340EA030021FA04F368
:1003580045EA030130BDC4F10C04C4F1200220FABF
:1003680002F001FA04F340EA0300294630BD21FAFD
:1003780004F0294630BD94F0000F83F4801306BFC3
:1003880081F480110134013D4EE77FEA645C18BFB7
:100398007FEA655C29D094EA050F08BF90EA020F4E
:1003A80005D054EA000C04BF1946104630BD91EA46
:1003B800030F1EBF0021002030BD5FEA545C05D149
:1003C8004000494128BF41F0004130BD14F5800488
:1003D8003CBF01F5801130BD01F0004545F0FE41FC
:1003E80041F470014FF0000030BD7FEA645C1ABF31
:1003F800194610467FEA655C1CBF0B46024650EA68
:10040800013406BF52EA033591EA030F41F4002193
:1004180030BD00BF90F0000F04BF0021704730B519
:100428004FF4806404F132044FF000054FF00001EE
:1004380050E700BF90F0000F04BF0021704730B5AF
:100448004FF4806404F1320410F0004548BF404284
:100458004FF000013EE700BF42004FEAE2014FEAD9
:1004680031014FEA02701FBF12F07F4393F07F4FB4
:1004780081F06051704732F07F4208BF704793F0B7
:100488007F4F04BF41F40021704730B54FF46074CA
:1004980001F0004521F000411CE700BF50EA0102CD
:1004A80008BF704730B54FF000050AE050EA010276
:1004B80008BF704730B511F0004502D5404261EBE6
:1004C80041014FF4806404F132045FEA915C3FF427
:1004D800D8AE4FF003025FEADC0C18BF03325FEAC4
:1004E800DC0C18BF033202EBDC02C2F1200300FA75
:1004F80003FC20FA02F001FA03FE40EA0E0021FA9A
:1005080002F11444BDE600BF70B54FF0FF0C4CF487
:10051800E06C1CEA11541DBF1CEA135594EA0C0F39
:1005280095EA0C0F00F0DEF82C4481EA030621EA74
:100538004C5123EA4C5350EA013518BF52EA0335AF
:1005480041F4801143F4801338D0A0FB02CE4FF061
:100558000005E1FB02E506F00042E0FB03E54FF091
:100568000006E1FB03569CF0000F18BF4EF0010E89
:10057800A4F1FF04B6F5007F64F5407404D25FEA85
:100588004E0E6D4146EB060642EAC62141EA555138
:100598004FEAC52040EA5E504FEACE2EB4F1FD0C7A
:1005A80088BFBCF5E06F1ED8BEF1004F08BF5FEAF8
:1005B800500E50F1000041EB045170BD06F00046AA
:1005C80046EA010140EA020081EA0301B4EB5C0457
:1005D800C2BFD4EB0C0541EA045170BD41F480114F
:1005E8004FF0000E013C00F3AB8014F1360FDEBF74
:1005F800002001F0004170BDC4F10004203C35DA50
:100608000C341BDC04F11404C4F1200500FA05F3D2
:1006180020FA04F001FA05F240EA020001F0004273
:1006280021F0004110EBD37021FA04F642EB0601E9
:100638005EEA430E08BF20EAD37070BDC4F10C0413
:10064800C4F1200500FA04F320FA05F001FA04F2D7
:1006580040EA020001F0004110EBD37041F10001C3
:100668005EEA430E08BF20EAD37070BDC4F12005CE
:1006780000FA05F24EEA020E20FA04F301FA05F236
:1006880043EA020321FA04F001F0004121FA04F2DE
:1006980020EA020000EBD3705EEA430E08BF20EAAE
:1006A800D37070BD94F0000F0FD101F000464000E8
:1006B80041EB010111F4801F08BF013CF7D041EA6A
:1006C800060195F0000F18BF704703F0004652006E
:1006D80043EB030313F4801F08BF013DF7D043EA3F
:1006E8000603704794EA0C0F0CEA135518BF95EAF5
:1006F8000C0F0CD050EA410618BF52EA4306D1D17C
:1007080081EA030101F000414FF0000070BD50EA9A
:10071800410606BF1046194652EA430619D094EA24
:100728000C0F02D150EA013613D195EA0C0F05D10E
:1007380052EA03361CBF104619460AD181EA030162
:1007480001F0004141F0FE4141F470014FF000001A
:1007580070BD41F0FE4141F4780170BD70B54FF0B5
:10076800FF0C4CF4E06C1CEA11541DBF1CEA135535
:1007780094EA0C0F95EA0C0F00F0A7F8A4EB050417
:1007880081EA030E52EA03354FEA013100F088800E
:100798004FEA03334FF0805545EA131343EA1263D7
:1007A8004FEA022245EA111545EA10654FEA00268C
:1007B8000EF000419D4208BF964244F1FD0404F545
:1007C800407402D25B084FEA3202B61A65EB0305A1
:1007D8005B084FEA32024FF480104FF4002CB6EB5E
:1007E800020E75EB030E22BFB61A754640EA0C00DE
:1007F8005B084FEA3202B6EB020E75EB030E22BF1E
:10080800B61A754640EA5C005B084FEA3202B6EB5E
:10081800020E75EB030E22BFB61A754640EA9C001D
:100828005B084FEA3202B6EB020E75EB030E22BFED
:10083800B61A754640EADC0055EA060E18D04FEAAB
:10084800051545EA16754FEA06164FEAC30343EA4B
:1008580052734FEAC2025FEA1C1CC0D111F4801F18
:100868000BD141EA00014FF000004FF0004CB6E711
:1008780011F4801F04BF01430020B4F1FD0C88BFB0
:10088800BCF5E06F3FF6AFAEB5EB030C04BFB6EBBB
:10089800020C5FEA500C50F1000041EB045170BDAE
:1008A8000EF0004E4EEA113114EB5C04C2BFD4EBDB
:1008B8000C0541EA045170BD41F480114FF0000E5F
:1008C800013C90E645EA060E8DE60CEA135594EADB
:1008D8000C0F08BF95EA0C0F3FF43BAF94EA0C0FDE
:1008E8000AD150EA01347FF434AF95EA0C0F7FF453
:1008F80025AF104619462CE795EA0C0F06D152EAA7
:1009080003353FF4FDAE1046194622E750EA41068A
:1009180018BF52EA43067FF4C5AE50EA41047FF49B
:100928000DAF52EA43057FF4EBAE12E74FF0FF3C00
:1009380006E000BF4FF0010C02E000BF4FF0010CD1
:100948004DF804CD4FEA410C7FEA6C5C4FEA430C4A
:1009580018BF7FEA6C5C1BD001B050EA410C0CBF99
:1009680052EA430C91EA030F02BF90EA020F0020FB
:10097800704710F1000F91EA030F58BF994208BF62
:1009880090422CBFD8176FEAE37040F0010070471F
:100998004FEA410C7FEA6C5C02D150EA013C07D176
:1009A8004FEA430C7FEA6C5CD6D152EA033CD3D0C1
:1009B8005DF8040B704700BF8446104662468C46BB
:1009C8001946634600E000BF01B5FFF7B7FF0028EE
:1009D80048BF10F1000F01BD4DF808EDFFF7F4FF17
:1009E8000CBF012000205DF808FB00BF4DF808EDA2
:1009F800FFF7EAFF34BF012000205DF808FB00BFC5
:100A08004DF808EDFFF7E0FF94BF012000205DF8E6
:100A180008FB00BF4DF808EDFFF7CEFF94BF01209B
:100A280000205DF808FB00BF4DF808EDFFF7C4FF94
:100A380034BF012000205DF808FB00BF4FEA410CDD
:100A48007FEA6C5C02D150EA013C0AD14FEA430CC0
:100A58007FEA6C5C02D152EA033C02D14FF00000FD
:100A680070474FF0010070474FEA410212F500123B
:100A780015D211D56FF47873B3EB625212D94FEADD
:100A8800C12343F0004343EA505311F0004F23FAC7
:100A980002F018BF404270474FF00000704750EA1C
:100AA800013005D111F0004008BF6FF000407047D9
:100AB8004FF00000704700BF4FEA4102B2F1E04337
:100AC80024BFB3F5001CDCF1FE5C0DD901F0004C2D
:100AD8004FEAC0024CEA5070B2F1004F40EB83007D
:100AE80008BF20F00100704711F0804F21D113F1A9
:100AF8003872BCBF01F00040704741F480114FEAE2
:100B08005252C2F11802C2F1200C10FA0CF320FA6A
:100B180002F018BF40F001004FEAC1234FEAD32387
:100B280003FA0CFC40EA0C0023FA02F34FEA4303F1
:100B3800CCE77FEA625307D150EA01331EBF4FF07A
:100B4800FE4040F44000704701F0004040F0FE4095
:100B580040F40000704700BF53B94AB9002908BFE4
:100B680000281CBF4FF0FF314FF0FF3000F00CB8E9
:100B7800ADF1080C6DE904CE0CF03EF8DDF804E0A8
:100B8800DDE9022304B07047704700BF10B5054C7B
:100B9800237833B9044B13B10448AFF30080012321
:100BA800237010BD8002002000000000C4CE0008A1
:100BB80008B5034B1BB103490348AFF3008008BDD8
:100BC8000000000084020020C4CE000838B5114C93
:100BD800114D0AF093F82378013B05EBC30155F852
:100BE80033204B68801A40F6C51263EB43039042EA
:100BF80073F1000324BF002323700AF07FF82378E1
:100C080045F8330005EBC30201330021237051601E
:100C180038BD00BF5800002090030020012A02D1EF
:100C2800016000207047022A05D0032AF9D0002A63
:100C3800F7D10260F5E70B680360F2E7036818472D
:100C48000368C9B21B681847836810B5044613B116
:100C5800032201469847204610BD0000524B1B78DE
:100C6800013BF0B5514F524E524D534C032B00F2FD
:100C78009380DFE803F002878787504BB3F90020A1
:100C8800B2F5966F02DD4FF496621A80B3F9003020
:100C980007EE903A4A4BF8EEE77A93ED005A494B43
:100CA80037EEC57AD3ED005A474B77EE656A93ED78
:100CB800006A76EEC66A77EE857AFDEEE66A37EE6A
:100CC800257A16EE903A77EEE56A75EEA77A76EE13
:100CD800866A77EEC67AFDEEE66A19B2FDEEE77A25
:100CE80016EE903A18B217EE903A37EE067A1BB223
:100CF800B1F57A7F30802B80BDEEC77AB8BF40F25D
:100D0800B6333980B8BF3B80B6F9003017EE102AE9
:100D1800B3F57A7F12B2B8BF40F2B6332280B8BFBB
:100D28003380B5F90030B3F57A7FBCBF40F2B633F3
:100D38002B80B4F90030B3F57A7FBCBF40F2B633EC
:100D48002380B7F90030B3F5FA6FC4BF4FF4FA63E4
:100D58003B80B6F90030B3F5FA6FC4BF4FF4FA63BD
:100D68003380B5F90030B3F5FA6FC4BF4FF4FA63B6
:100D78002B80B4F90030B3F5FA6FC4BF4FF4FA63AF
:100D88002380F0BD0D4BB3F90020B2F5FA6F7FF761
:100D98007DAF4FF4FA6278E74FF47A733B80338083
:100DA8002B802380BDE700BF88040020C2020020FA
:100DB800C0020020BE020020BC0200207E030020EA
:100DC800480300205C0300203403002010B5144AB7
:100DD800144C15492068B2F900200968812306F0EF
:100DE80003F8124A12492068B2F900200968114C28
:100DF800812305F0F9FF104A10492068B2F9002054
:100E08000968812305F0F0FF0D4A0E492068B2F900
:100E180000200968BDE81040812305F0E5BF00BF48
:100E2800C2020020A8020020B8020020C002002050
:100E3800B4020020A4020020BE020020B00200205C
:100E4800BC020020AC02002010B509F057FF184C76
:100E580007EE900A94ED007AF8EE677A77EEC77A93
:100E68009FED147AF4EEC77AF1EE10FA1FDD09F05F
:100E780045FF07EE900AF8EE677A01210B20C4EDD2
:100E8800007A09F0C5FE0C490C4B0D4A1B684868EE
:100E9800B3FBF2F30A2253434A68121A9342FBDC6B
:100EA80000210B2009F0B4FE064B01221A7010BD78
:100EB800400400200060EA45001000E0A000002087
:100EC80040420F002C04002008B5FFF7C7FEFFF7CB
:100ED8007DFFBDE80840FFF7B7BF00003249334A3D
:100EE8008B8810B540F2DD540020A342106046D92B
:100EF800A3F2DD5307EE903AF8EEE77AC2ED007AF6
:100F08002B4BD2ED007A93ED007A4B8877EEC77AB7
:100F1800B6EE007A67EE877A40F2DD54C2ED007AC9
:100F2800244AA342106031D9A3F2DD5307EE903A68
:100F3800F8EEE77AC2ED007A1F4BD2ED007AD3EDD6
:100F4800006A1E4C77EEE67A40F21A4367EE877A1B
:100F58002060C2ED007ACA889A420FD9088940F207
:100F68000E63984219D9A0F20E60FFF763FA144B8A
:100F78000022FFF7C9FAFFF79FFD206010BD40F27D
:100F8800DA54A342BCD8A3F2DB53B3E740F2DA54F5
:100F9800A342D1D8A3F2DB53C8E740F2A953984241
:100FA800ECD8A0F2AA50E0E78003002064030020F8
:100FB8007403002050030020700300203C0300202D
:100FC8000000E03F7E4B7F4AD3ED006A7E4B92EDF6
:100FD800007AD3ED007A7D4B76EEE76AD3ED007A9E
:100FE8007B4B1B68A6EEA77A07EE903AF8EEE77AF5
:100FF80082ED007AB4EEE77AF1EE10FA40F3B980A8
:10100800C2ED007A734992ED007A91ED006A724A56
:101018007249A6EE867A92ED006AD1ED005A36EE54
:10102800C66AA6EE257AF4EEC77AF1EE10FA0BD46A
:101038005B4207EE903AF8EEE77AB4EEE77AF1EE23
:1010480010FA58BFF0EE477A654BC2ED006AC3ED5F
:10105800007A644B644AD3ED006A644B92ED007ADF
:10106800D3ED007A624B76EEE76AD3ED007A614BF6
:101078001B68A6EEA77A07EE903AF8EEE77A82EDBB
:10108800007AB4EEE77AF1EE10FA7FDDC2ED007A6D
:10109800594992ED007A91ED006A584A5849A6EEEE
:1010A800867A92ED006AD1ED005A36EEC66AA6EE4F
:1010B800257AF4EEC77AF1EE10FA0BD45B4207EE0C
:1010C800903AF8EEE77AB4EEE77AF1EE10FA58BF04
:1010D800F0EE477A4B4BC2ED006AC3ED007A4A4BFB
:1010E8004A4A93ED007A4A4BD2ED006AD3ED007A72
:1010F800484B37EE677A83ED007A474BD3ED007A99
:10110800464B1B68E7EE276A07EE903AF8EEE77A57
:10111800C2ED006AF4EEE76AF1EE10FA43DDC2EDC3
:10112800007A3F49D2ED006A91ED006A3D4A3E4996
:10113800E7EE066A92ED006AD1ED005A37EE466A8C
:10114800E6EE256AF4EEE67AF1EE10FA0BD45B428D
:1011580007EE903AF8EEE77AF4EEE76AF1EE10FA65
:1011680058BFF0EE667A314B82ED007AC3ED007A13
:101178007047594206EE101AB8EEC66AB4EEC67A3F
:10118800F1EE10FA48BF82ED006A3BE7594206EEDD
:10119800101AB8EEC66AB4EEC67AF1EE10FA48BF75
:1011A80082ED006A74E7594206EE101AB8EEC66A74
:1011B800F4EEC66AF1EE10FA48BF82ED006AB0E7B5
:1011C8006003002068030020640300204C00002016
:1011D8004400002050000020580300204800002050
:1011E8005C0300204C03002054030020500300201F
:1011F8003C00002034000020400000204403002070
:101208003800002048030020380300204003002055
:101218003C0300206C0300202C0000202800002044
:101228003000002030030020240300203403002075
:10123800204B214AD3ED006A204B92ED006AD3ED92
:10124800007A1F4B1F4A66EEA77AC3ED007A1E4B41
:1012580093ED007AA6EE867A92ED006A83ED007A25
:10126800B4EEC67AF1EE10FA02DD83ED006A07E00B
:10127800164A92ED006AB4EEC67AF1EE10FAF4D48A
:10128800134A144992ED007A91ED006AC2ED006AA2
:1012980037EE667AD3ED006A0F49104B27EE067ACF
:1012A80077EEA67A81ED007A77EE877AC3ED007A39
:1012B800704700BF140300202000002024000020F5
:1012C80020030020180000200C0300201400002038
:1012D800100300201C0000201C030020180300201D
:1012E80008B5FFF7FBFDFFF76DFEBDE80840FFF707
:1012F8009FBF01210D2009F08BBC00210D2009F0B2
:1013080087BC08B5FFF7F5FFBDE80840FFF7F5BF54
:1013180010B509F0F1FC044609F0EEFC031B632B41
:1013280000D910BDFFF7E5FF4FF4FA7009F0E8FCAB
:10133800FFF7E3FF4FF4FA7009F0E2FCECE7000076
:10134800104A9389B3F5966F03D20F4B00221A7097
:101358007047A3F5AF61C72902D80B4B0222F6E705
:10136800B3F5E16F02D3084B0322F0E7B3F5AF6F93
:10137800EED3528940F2DB539A42E9D9024B042258
:10138800E5E700BF800300208804002008B53D4B36
:101398001B78042B21D8DFE803F003213C427200BC
:1013A800FFF7A7FF384B1A68384B1A60384B1A6892
:1013B800384B1A60384A00231360384A1360384A99
:1013C8001360384A1360384A1360384A1360384A41
:1013D8001360384A1360384A136008BD374B4FF41E
:1013E80096621A80FFF794FF274B1A68274B1A60FA
:1013F800274B1A68274B1A60274A00231360274A8D
:101408001360284A1360284A1360294A1360294A3E
:10141800E2E7FFF772FF2A4BDA88284B27E0FFF74D
:1014280068FF284B93ED007A274BD3ED007AB4EE92
:10143800E77AF1EE10FA1CD5244B254AD3ED007A51
:10144800244B77EEC77AC3ED007A1D4BB3F906300B
:10145800138007EE903A204BF8EEE77A93ED007A86
:10146800164B77EE877AFDEEE77A17EE902A1A8008
:1014780000E0D0DA194A00231360194AACE7FFF7F5
:1014880047FFC8E788040020CC020020C8020020DB
:10149800D0020020C4020020680300205803002066
:1014A8005C0300205403002044030020480300206C
:1014B8004003002030030020340300207E03002076
:1014C8008003002044040020100000200C000020AD
:1014D8007C03002014030020180300202C030020A4
:1014E8002803002008B5FFF72BFFBDE80840FFF7E9
:1014F8004DBF01210D2009F021BB00001FB50021BF
:10150800084609F01BFB0D4B1868002301930C4B90
:10151800009301300B4B03934FF002020A4B0293E6
:1015280069464FF0FF3018BF002009F0CFF9684630
:10153800FFF78AFB05B05DF804FB00BF68D500081B
:10154800D50B0008450C0008250C00081FB5012123
:101558000B2009F0F3FA00210B2009F059FB0021B8
:101568000C2009F0EBFA0C4B186B431C4FF00003EE
:1015780001930A4B00930A4B039318BF0C20094BA5
:1015880002930222694609F0A1F96846FFF75CFB5D
:1015980005B05DF804FB00BF68D50008891C000889
:1015A800450C0008250C000870B5C12009F0B0FAF8
:1015B80007EE900AF8EE677A294E17EE900AFEF7C2
:1015C8004BFF21A3D3E90023FFF7C8F8FFF774FA0C
:1015D8003060FEF741FF1EA3D3E90023FEF794FF16
:1015E8000446C1200D4609F093FA07EE900AF8EE7A
:1015F800677A17EE900AFEF72FFF17A3D3E90023A7
:10160800FFF7ACF822462B46FEF7C8FDFFF754FA61
:1016180007EE900AB1EE087AF4EEC77AF1EE10FA06
:10162800306010DD0F4B93ED007AF4EEC77AF1EEDF
:1016380010FA08D50C4B1B782BB9BDE870400B4944
:101648000B4809F003B970BDA4703D0AD7335C405C
:10165800713D0AD7A370ED3F6666666666089640D8
:1016680078030020540000209C020020E0CE0008EF
:10167800100700202DE9F3410F4B1B78122B18D1CE
:101688000E4C0F4E01254FF4FA68A068CDF8008083
:1016980027694FF47A734FF4C8624FF41671381AF9
:1016A80009F062F90135092D26F8020F04F110043A
:1016B800EBD102B0BDE8F081580000209003002073
:1016C80080030020000000002DE9F04FDA4BDFF81E
:1016D8009483B3F9000007EE900A2DED028BF8EE23
:1016E800E77A83B017EE900AFEF7B6FE0446D8F8FC
:1016F80000000D46FEF7B0FEBFA3D3E90023FEF7B6
:1017080003FFBFA3D3E9002306460F462046294618
:10171800FFF724F8BCA3D3E90023FEF7F5FE024641
:101728000B4630463946FEF739FDFFF7C5F9C34B7E
:10173800C8F80000B3F90000DFF82C8307EE900A20
:10174800F8EEE77A17EE900AFEF786FECDE900017B
:10175800D8F80000FEF780FEA7A3D3E90023FEF720
:10176800D3FEA7A3D3E9002306460F46DDE900010F
:10177800FEF7F4FFA4A3D3E90023FEF7C5FE024653
:101788000B4630463946FEF709FDFFF795F9AC4B95
:10179800C8F80000B3F90000AA4E07EE900AF8EE68
:1017A800E77A17EE900AFEF757FE804630688946BA
:1017B800FEF752FE90A3D3E90023FEF7A5FE90A3FF
:1017C800D3E9002382468B4640464946FEF7C6FFCA
:1017D8008DA3D3E90023FEF797FE02460B46504639
:1017E8005946FEF7DBFCFFF767F9DFF880A23060A7
:1017F800DAF80000DFF878B2FEF72EFE84A3D3E90A
:10180800002306460F4620462946FEF77DFE02467F
:101818000B4630463946FEF7C1FCFFF74DF9FEF797
:101828001BFE7DA3D3E9002306460F4640464946E2
:10183800FEF76AFE41EC100B09F02AFEDBF8000007
:1018480059EC108BFEF708FE71A3D3E90023044678
:101858000D46DDE90001FEF757FE02460B4620461D
:101868002946FEF79BFCFFF727F9FEF7F5FD4246F0
:1018780004464B460D4630463946FEF745FE0246BD
:101888000B4620462946FEF787FCFFF715F9CBF8EB
:101898000000FEF7E1FDCDE9000102460B46404697
:1018A8004946FEF731FE32463B46FEF777FCFFF726
:1018B80003F9654BCAF80000B3F90060634B644F45
:1018C800B3F90090634B8046B3F9000009FB09F3B4
:1018D80006FB063300FB0030FEF7ACFD41EC100BB5
:1018E80009F0A2FD51EC100BFFF7BEF85A4B186037
:1018F80089EAE973A3EBE9739BB29842044617DDC2
:1019080007EE100A07EE909AB8EEC70AF8EEE77AE3
:1019180087EE800A09F004FE10EE100AFEF79CFD1F
:101928003FA3D3E90023FEF7EFFDFFF7C5F83860C2
:1019380086EAE673A3EBE6739BB29C42DFF8349128
:1019480018DD07EE906AB8EEE70A07EE904AB8EE9F
:10195800E78A80EE080A09F0E3FD10EE100AFEF7A8
:101968007BFD2FA3D3E90023FEF7CEFDFFF7A4F8F4
:10197800C9F800003868FEF76FFD2BA3D3E90023F0
:10198800FEF7C2FD2AA3D3E9002306460F46DDE988
:101998000001FEF7B9FD02460B4630463946FEF710
:1019A800FDFBFFF789F8CBF8000008EE100AD9F81C
:1019B8000000FEF751FD1CA3D3E90023FEF7A4FDA8
:1019C800044640460D46FEF747FD19A3D3E9002318
:1019D800FEF79AFD0B46024629462046FEF7DEFB37
:1019E800FFF76AF81D4BCAF800001B78022B07EEB8
:1019F800900A41D11A4B42E0666666666666E63F23
:101A08000000000000605040333333333333D33F9A
:101A18009615D4015A04103F626E2C656FE2B13EF0
:101A2800D9CEF753E3A54C402D431CEBE2363A3FA1
:101A3800789CA223B9FCEF3FF4020020F2020020B8
:101A4800F002002038030020FA020020F8020020EB
:101A5800CC020020F6020020EC02002088040020BE
:101A680060000020600300204C030020C402002016
:101A7800C8020020D0020020042BBBD10B4B93EDF1
:101A8800007A0B4A0B4B0C49127828EE078A67EE4E
:101A9800877A83ED008AC1ED007A12B900220A60C4
:101AA8001A6003B0BDEC028BBDE8F08F6400002023
:101AB8000800002070030020740300200022C0E901
:101AC8000022C0E902227047F0B53B4B3B4D1F682E
:101AD8002E688DB0002104A8FFF7F0FF002108A8A8
:101AE800FFF7ECFF08AB0024029304AB062239464B
:101AF80001933046FA23009405F01CFB08A8FFF771
:101B0800A3F804A8FFF7A0F82D4B2D681E682146FE
:101B180004A8FFF7D3FF214608A8FFF7CFFF08ABBB
:101B2800029304AB05223146CDE900432846FA2347
:101B380005F000FB08A8FFF787F804A8FFF784F86A
:101B4800204D214B2E681F68214604A8FFF7B6FFD9
:101B5800214608A8FFF7B2FF08AB029304AB0A229C
:101B68003946CDE900433046FA2305F0E3FA08A8E0
:101B7800FFF76AF804A8FFF767F8144B2D681E688A
:101B8800214604A8FFF79AFF214608A8FFF796FF09
:101B980008AB029304AB09223146CDE9004328463D
:101BA800FA2305F0C7FA08A8FFF74EF804A8FFF7CC
:101BB8004BF80DB0F0BD00BFB8020020A80200200D
:101BC800B4020020A4020020B0020020AC020020D1
:101BD800037F10B504469BB109F090F8FEF71AFC94
:101BE80025A3D3E90023FEF7B9FDFEF765FF94EDC1
:101BF800087A206207EE900A37EEC77A84ED067AF3
:101C0800D4ED067A94ED057A9FED196A27EE277AC6
:101C180067EE077A77EE075AF0EE676AE5EE866AAE
:101C2800F1EE005A76EEA56A87EEA66A36EE065AF7
:101C380084ED026A84ED035A84ED046AB0EE005A1A
:101C4800BAEE006AA7EE856AB1EE466A86EE265AB3
:101C58009FED086A84ED005AE7EE467A77EEA57A9A
:101C6800F1EE677A87EEA67A84ED017A10BD00BF9F
:101C7800F304B53FF30435400000000080842E4192
:101C880070B5534E33782DED028B6BB10C2008F0F4
:101C9800F9FF01284F4C0AD109F030F807EE900AF5
:101CA800F8EE677AC4ED007ABDEC028B70BD09F0DE
:101CB80025F808EE100AD4ED007A474BB8EE488AAA
:101CC80083ED008A38EE678A444B83ED008A444BE3
:101CD8001868FEF7AFFB044618EE100A0D46FEF72B
:101CE800BBFB39A3D3E90023FEF738FD02460B46B8
:101CF80020462946FEF708FC3A4B0022FEF704FC72
:101D0800394B0022FEF700FCFEF7D6FE08EE100A5B
:101D1800F2EE047AB4EE678AF1EE10FA48BFB0EE3C
:101D2800678ADFED327A324BB4EEE78AF1EE10FAC9
:101D380083ED008A43D52F4B2F4A304C1968304D1C
:101D4800116083ED008A2F4A237F2968116013B13F
:101D58002046FFF73DFFD4ED027A94ED0D6A94ED2D
:101D6800007AD4ED0A6AD4ED0E5A94ED015A84ED46
:101D7800098A68EE277A84ED0E6AE7EE067A9FED07
:101D8800227A84ED0A8A77EE877A94ED037A26EE32
:101D9800877AA5EE257AD4ED045A77EE877A94ED02
:101DA8000B7AC4ED0B6AE5EE877AC4ED0C7AC4EDC4
:101DB8000D7AC5ED007A08F0A1FF144B18600023D6
:101DC800337071E7AFF300800000000080842E417B
:101DD8002C04002038040020340400203C04002097
:101DE8005C000020000059400000E03F000048432C
:101DF800300400208404002024040020480400202B
:101E080044040020200400200000000028040020D2
:101E1800244838B5244B4361244B83610123244C67
:101E2800244D0377244B03620023436203638362D8
:101E38004363C3628363FFF7CBFEA069294606F0BC
:101E4800C5FB1E4BC0F3C43018602946606906F014
:101E5800BDFB1B4BC0F3C43018602946A06A06F0CE
:101E6800B5FB184BC0F3C43018602946606A06F009
:101E7800ADFB154BC0F3C4301860B02005F0F2FE7E
:101E8800124B1968044605F099F8114BB0201C60F4
:101E980005F0E8FE0F4B1968044605F08FF80E4B65
:101EA8001C6038BD48040020E4CB96416F12833A89
:101EB80068D5000880D100086F1283BAB8020020E4
:101EC800B4020020B0020020AC0200200400002070
:101ED800A802002000000020A40200202DE9F843F9
:101EE8004348682100F0D4FA3B214148FEF7A8FE98
:101EF8003F4800F0F3FB3E480E22682100F0E9FB62
:101F08003B4800F077FA0D28FADD3948DFF81091E0
:101F1800DFF81081374F384E384D00F06FFA04461D
:101F2800334800F06BFA40EA0420A9F80000304872
:101F380000F064FA04462E4800F060FA40EA0420F3
:101F4800A8F800002A4800F059FA0446284800F08A
:101F580055FA40EA04203880254800F04FFA044634
:101F6800234800F04BFA264B40EA0420188020480A
:101F780000F044FA04461E4800F040FA40EA042003
:101F880030801B4800F03AFA0446194800F036FA47
:101F980040EA04202880164800F030FA0446144825
:101FA80000F02CFA174AB9F8003012889B1A164A22
:101FB800A9F800301288B8F800309B1A134AA8F81C
:101FC800003012883B889B1A114A3B80128833885C
:101FD8009B1A104A338012882B889B1A2B800E4B31
:101FE8001B8840EA0420C01A0C4B1880BDE8F8830F
:101FF8008C040020F6020020F4020020F2020020E7
:10200800FC0200200403002002030020000300203B
:10201800080300200A03002006030020F002002025
:10202800FA020020F80200202DE9F84FA048A14D3F
:10203800002100F017FC9E48682100F029FA9C480E
:1020480000F04CFB28702C78002C40F0E980984870
:10205800DFF8C092984FDFF8C082984E984DDFF8AD
:10206800BCA2682100F014FA91486B21FEF7E8FD44
:1020780021468F48FEF7E4FD8D4800F02FFB8C4881
:10208800682100F005FA8A481B21FEF7D9FD0821CE
:102098008748FEF7D5FD864800F020FB8448682174
:1020A80000F0F6F982481C21FEF7CAFD102180488D
:1020B800FEF7C6FD7E4800F011FB7D48682100F060
:1020C800E7F97B481A21FEF7BBFD79480321FEF7A3
:1020D800B7FD774800F002FBA9F800403C80A8F85B
:1020E80000403480B9F90020DFF834B2754C40F66E
:1020F800B7339A4240F3988040F6B8322B6893FB86
:10210800F2FC236893FBF2FE6F4BC4F800E01868FA
:102118006E4C90FBF2F018606D4BC5F800C0196862
:10212800DBF8005091FBF2F195FBF2F5196023689A
:1021380093FBF2F3674A23601080674AA6F800E031
:102148001180664AA8F800C0A3F5805313803D802B
:10215800CBF80050FFF7C2FE614B624FB3F9005055
:10216800614BB3F90060614BB3F9000006FB06F35D
:1021780005FB053300FB0030FEF75CF941EC100B62
:1021880009F052F951EC100BFEF76EFC584B186031
:1021980086EAE673A3EBE6739BB29842044617DD22
:1021A80007EE100A07EE906AB8EEC70AF8EEE77A6B
:1021B80087EE800A09F0B4F910EE100AFEF74CF920
:1021C80039A3D3E90023FEF79FF9FEF775FC3860C1
:1021D80085EAE573A3EBE5739BB29C42454E17DD98
:1021E80007EE104A07EE905AB8EEC70AF8EEE77AFB
:1021F80087EE800A09F094F910EE100AFEF72CF920
:1022080029A3D3E90023FEF77FF9FEF755FC3060D8
:10221800394B3A681A60394B32681A60BDE8F88F52
:10222800042008F06DFD0EE7FFF758FE344B2649F1
:10223800B3F900202B6813442B60324BB3F900200C
:10224800DBF800301344CBF800302F4B2268B3F989
:10225800003013442360224B0A68B3F9003013445A
:102268000B601B49204B0A68B3F9003013440B601C
:1022780016491E4B0A68B3F9003013440B60234B10
:10228800DAF804101B68224AB3FBF2F39B00DAF871
:102298000420521A9342FADCB9F800300133A9F845
:1022A80000301FE7AFF30080D9CEF753E3A54C40C9
:1022B8008C0400209C0200200A0300200603002052
:1022C800E8020020E0020020DC020020D402002006
:1022D800D80200200403002002030020000300208D
:1022E800FA020020CC020020F8020020F6020020AA
:1022F800EC020020D0020020C8020020C402002006
:10230800F4020020F2020020F0020020A0000020C9
:1023180040420F00FE02002008030020001000E0E9
:10232800E402002008B5FFF7E4F8FFF7E7F8FFF745
:10233800CBFBFFF779FEBDE80840FFF707B90000BF
:1023480038B54FF461411448144D06F017FE41F2B8
:10235800883008F0D5FCFFF7E5FFFEF7CEFF40F226
:10236800DD346B88A34210D9AB88A3420DD9EB8822
:10237800A3420AD92B89A34207D908F0BFFC084B0E
:102388001860BDE83840FEF7B4BFFFF773F90420C2
:1023980008F0B6FCE5E700BF100700208003002026
:1023A800A002002008B5FFF7FFF8FFF763F9FFF771
:1023B80095FDBDE80840FFF787B9000010B5FFF7A5
:1023C80091F8FFF7EFFFFEF78BFFFEF77DFDFEF7B5
:1023D80098FF064C08F092FC2368C01AB0F57A6F93
:1023E800F8D308F08BFC206010BD00BFA0020020CD
:1023F80000207047028BC08A101A7047C28A018B6E
:10240800914288BF0169034683BF885C0132DA8242
:102418004FF0FF307047028BC38A9A4286BF026929
:10242800D05C4FF0FF307047806DD0F8DC302BB1B6
:1024380000234384D0F8E030D4301847704738B5CB
:102448000446283000F038FBE06918B108F00AFEAD
:102458000023E36120690025258410B108F002FEFD
:102468002561A58238BD000038B50546074B45F8FB
:10247800D43B0446FFF7E3FF2846FEF7E5FB04F1EB
:10248800C400FEF7E1FB204638BD00BF74CF00084A
:102498000123994080F824300023817643847047D3
:1024A80038B5838A8B4205460C4609D2202938BFA5
:1024B80020240069214608F08BFE10B12861AC8207
:1024C80038BDFEE773B5846D866ED4F8CC3005460A
:1024D800E3B1E28A238B9A4218D331462046FFF7AC
:1024E800DFFF2069324605F1740108F0EBFE002396
:1024F800E382D4F8CC30268301960BB90AF0DAFCD3
:10250800D4F8D03001A904F1C400984702B070BDD6
:10251800B1F5806F70B505460C4610D8038C99420A
:102528000AD920290E4638BF2026C069314608F04E
:102538004FFE18B1E8612E84204670BDFEE70024E6
:10254800FAE713B590F824308DF8071004467BB1EC
:10255800418C0131FFF7DCFF40B1638CE2699DF8E3
:102568000710D154638C01336384012002B010BD7D
:1025780001220DF10701283000F0EEFAB0FA80F0E0
:102588004009F3E770B590F8243004460E46154626
:1025980093B1418C1144FFF7BBFF10B900252846C1
:1025A80070BD638CE0692A461844314608F08AFEFB
:1025B800638C2B446384F2E792B2283000F0CCFAA3
:1025C8000028EBD1EBE70346006918B19A8A00218D
:1025D80008F034BE70470346C06918B11A8C002150
:1025E80008F02CBE704738B50446D1B94FF42A0319
:1025F800A36594F8BE30012B16D1638CE269A17EE5
:1026080004F1280000F028FB042828BF042045B264
:102618002046FFF7E0FF0023638484F82430E8B203
:1026280038BD4FF02A43E3E70425F8E72DE9F047E2
:1026380090F8BEA09DF820509DF82490BAF1010FA3
:1026480004460F461646984638D111467F00FFF7D4
:1026580027FFFFB2CDB1032D28BF0325013D00237D
:10266800EDB284F824A0A7766384ED00236828FAE5
:1026780005F11B68C9B22046083D984715F1080FB7
:10268800F4D100212046FFF7AEFFB9F1000F12D1B7
:102698004FF42A03A36522693346394604F128001A
:1026A80000F074FA002818BF00260023E38226836E
:1026B8003046BDE8F0874FF02A43EBE70026F7E7FE
:1026C80007B5019300230093FFF7B0FF03B05DF84F
:1026D80004FB0123D2B2C9B2FFF7F2BF0121FFF711
:1026E80082BF38B504460025C5820583FFF76BFF16
:1026F80065842046FFF76FFF38BD00002DE9F041E3
:102708000446D0F8840008F04BF9002108F016FAC6
:10271800D4F88430C3F30312082A43D8254D264F32
:1027280055F8222003F00F03126957F8233093431A
:102738003ED0D4F8880008F033F9012108F0FEF9FA
:10274800D4F888001D4BC0F3031108291B682CD846
:1027580000F00F021A4C57F82270B3FBF4F3194A31
:102768000A24634314264FEA074E55F821C0CCF8D3
:1027780018E0D2F804805468A4EB0804A342FADCF9
:10278800CCF81870D2F804C05468A4EB0C04A34227
:10279800FADC013EE9D108F003F93146BDE8F04121
:1027A80008F0CCB900231B69FFDE00239B61FBE71F
:1027B800BDE8F08170000020A8CF0008A00000202C
:1027C80040420F00001000E02DE9F04104460026C9
:1027D800C68206831F460D469046FFF7F4FE6684C0
:1027E800A6762046FFF7F7FED4F8DC30C4F8804020
:1027F80033B104F1D401032208469847C4E9376687
:10280800002384F824306B0084F825306B1E5D4269
:102818005D4184F8BE50204684F8BF8084F8C070BB
:1028280004F12805FFF76AFF94F825300A494FF4A8
:102838008042284600F05CF894F8BE304BB9284630
:10284800064900F061FA28460549BDE8F04100F064
:1028580054BABDE8F08100BFA08601003124000809
:10286800CD2400080A4600230121FFF7ADBF00224E
:10287800C0E90022C0E9022270470022C0E9002214
:10288800C0E902227047000038B500254FF47A737A
:10289800C0E901530E4B044640F8C43BFFF7E7FF7D
:1028A80004F1D400FFF7E9FF9C22294604F128002F
:1028B80008F0C4FC074B9A6BC4F88420DB6BC4F89F
:1028C8008830E56125842561A582204638BD00BF92
:1028D80074CF000868D500080148FFF7D5BF00BFCE
:1028E8008C0400200148FFF7BFBD00BF8C04002006
:1028F8002DE9FF410D4616461F460446002800F004
:10290800C4806349C06D05F03FFE62498046206E71
:1029180005F03AFE0146B8F1000F00F0B680002835
:1029280000F0B380404605F056FE2060002800F015
:10293800AC80594B984204F104084FF0000364D16D
:102948000193564B1A6C42F400121A641A6C02F482
:1029580000120192019A1A6A42F400121A621A6A63
:1029680022F400121A6242F21F03A4F864304C4B9E
:10297800C3F800804749206E05F0EEFDE06D44493C
:1029880005F0EAFD474823686360854206D9464852
:10299800854203D94548854288BF0020414BA06045
:1029A8009D4294BF0025012594F8973094F964005E
:1029B800AD03C4E9035700255B1B18BF01239B0126
:1029C800236294F89830E5615B1B18BF0123DB0193
:1029D80063622A460221C4E9056584F8415000F083
:1029E800DDFC94F9640000F00BFD94F965002A46BB
:1029F800022100F0D3FC94F9650000F001FD404687
:102A080000F0EEFE00283CD0FEE7294A90421AD199
:102A18000293224B1A6C42F480021A641A6C02F474
:102A280080020292029A1A6A42F480021A621A6AB0
:102A380022F480021A6242F22123A4F86430184B6F
:102A4800C3F8048096E71B4A904293D10393134B33
:102A58001A6C42F400021A641A6C02F4000203921F
:102A6800039A1A6A42F400021A621A6A22F40002ED
:102A78001A6244F64813A4F86430094BC3F8088076
:102A880078E70223A06684F8953004B0BDE8F081A9
:102A98002CD40008FCD30008005400400038024041
:102AA80070050020A0860100801A060040420F0031
:102AB80000580040005C004010B5044690F96400DE
:102AC80000F0ACFC94F9650000F0A8FC201D00F0B3
:102AD80030FF206E032105F0B1FCE06D032105F005
:102AE800ADFC2368184A93420DD1184B1A6A42F478
:102AF80000121A621A6A22F400121A621A6C22F47C
:102B080000121A6410BD124A93420CD10F4B1A6A74
:102B180042F480021A621A6A22F480021A621A6C5B
:102B280022F48002EDE70B4A9342EBD1074B1A6A75
:102B380042F400021A621A6A22F400021A621A6C3B
:102B480022F40002DDE700BF0054004000380240D4
:102B580000580040005C0040202A30B514D80023FB
:102B68009CB2A24207D890F894301344DBB280F8A4
:102B78009430002030BD90F89440CD5C1C4404444F
:102B8800013384F87450EBE70120F3E72DE9F347AC
:102B980005460F469046994600F092F90024D5F86C
:102BA80030A006460435CDF800A04B4642463946CB
:102BB800284600F0F1FF022806D100F081F9841BB5
:102BC800642CF0D906201FE008BB00F079F906460E
:102BD800284601F049FF202809D0632C07D800F0C7
:102BE8006FF9841B284601F042FF0028F0D02846E0
:102BF80001F03DFF632C0CD882060AD443070AD49F
:102C0800003818BF0120800002B0BDE8F08704201A
:102C1800FAE70520F8E70320F6E710B56423044631
:102C2800043000F09FFE022810D0032806D090B18F
:102C380094F84130202B18BF042004E094F8413068
:102C4800202B18BF052008BF022004E094F841306B
:102C5800202B18BF062010BD2DE9F34704460E4669
:102C680091461F4600F02CF980463FB901223146B3
:102C7800204602B0BDE8F047FFF7CFBFD4F830A038
:102C880000250434CDF800A03B464A46314620468C
:102C980000F01AFF022807D100F012F9A0EB08058E
:102CA800642DEFD906201FE008BB00F009F906469D
:102CB800204601F0D9FE202809D0632D07D800F05E
:102CC800FFF8851B204601F0D2FE0028F0D02046F0
:102CD80001F0CDFE632D0CD882060AD443070AD42E
:102CE800003818BF0120800002B0BDE8F08704203A
:102CF800FAE70520F8E70320F6E720B119B1C16625
:102D0800043001F045B8704720B119B101670430AB
:102D180001F03EB8704770B590F89130012B044629
:102D28000D46A0F1040609D1436E3BB1836E3046CF
:102D38009847022384F89130002363668DB9E36EC7
:102D480084F891501BB184F890503046984794F815
:102D5800902004F1700120462023BDE8704000F067
:102D6800A1BF00230122636684F89120616E74314B
:102D7800314420460423BDE8704000F0CEBF10B5B2
:102D880090F89130012B044604D1436E13B1836E41
:102D980004389847022384F891300023636620465C
:102DA800BDE8104000F0F4BF436E1F2BDEBF436E3A
:102DB8000133436690F89130012BDAB205D1416EA8
:102DC80070310423014400F0A8BF7047002380F845
:102DD8009030704790F892300BB900F0D9BF704727
:102DE800014B186801F054B970050020014B1868B0
:102DF80001F09EBD70050020014B586801F048B9EC
:102E080070050020014B586801F092BD7005002044
:102E1800014B986801F03CB970050020014B986897
:102E280001F086BD700500207047000038B50E4BD4
:102E38001A784FF47A73B3FBF2F30C4A054610681C
:102E4800B0FBF3F000F0FCFA044658B90F2D09D88E
:102E5800024629464FF0FF3000F0A0FA044B204606
:102E68001D6038BD0120FCE768000020A00000209C
:102E78006C00002008B50B4B1A6842F400721A6007
:102E88001A6842F480621A601A6842F480721A6002
:102E9800032000F071FA0020FFF7C8FFFFF7C4FF16
:102EA800002008BD003C0240034A044B11681B780F
:102EB8000B441360704700BF7C05002068000020A9
:102EC800014B1868704700BF7C05002038B50446E0
:102ED800FFF7F6FF631C1CBF054B1B78054618BFA0
:102EE800E418FFF7EDFF431BA342FAD338BD00BF38
:102EF8006800002038B50446002800F09B80056C67
:102F080025B904F0A3FF656484F83C50236CDB0604
:102F180000F18E80236C23F4885323F0020343F0DE
:102F280002032364444B5A6822F440325A605A68B8
:102F380061680A435A60236821695A6822F48072DA
:102F48005A605A6842EA01225A605A68A16822F017
:102F580040725A605A680A435A609A68E16822F4D3
:102F680000629A609A680A439A603449A26A8A425F
:102F780052D0996821F07061996099680A439A6003
:102F88009A68E16A22F040529A609A680A439A6005
:102F98009A6822F002029A609A68217E42EA410207
:102FA8009A6094F82020002A3ED05A68616A42F458
:102FB80000625A605A6822F460425A605A680139BD
:102FC80042EA41325A60DA6AE16922F47002DA624E
:102FD800DA6A013942EA0152DA629A6822F4007226
:102FE8009A609A6894F8301042EA41229A609A6886
:102FF800616922F480629A609A68002042EA81221C
:103008009A606064236C23F0030343F00103236494
:10301800002384F83C3038BD9A6822F070629A60C8
:103028009A6822F04052B2E75A6822F40062C9E76F
:103038000120EDE70120EEE7002301400100000F29
:1030480038B50446A0B1036C43F002030364036877
:103058009A6822F001029A609D6815F0010503D173
:1030680004F03CFF65642564002084F83C0038BD0A
:103078000120FCE782B00023019390F83C30012B3B
:1030880069D0012380F83C3003689A68D2070BD5D1
:103098009A68D1071AD4036C43F010030364436C95
:1030A80043F0010343644CE09A682C4942F0010262
:1030B8009A602B4A1268B2FBF1F202EB42020192CB
:1030C800019A002AE4D0019A013AF8E7026C22F446
:1030D800E06222F0010242F4807202645A685205EA
:1030E80041BF026C22F4405242F480520264026CE6
:1030F80012F480521CBF426C22F006024264002285
:1031080080F83C206FF022021A60164A516811F0CC
:103118001F0F15491CD18B4207D001F580718B42D6
:103128000CD1526812F01F0F0BD19A6812F0405F51
:1031380007D19A6842F080429A6002E00B498B42BC
:1031480002D0002002B07047526812F0100FEBE76F
:103158008B42F6D1E9E70220F4E700BF40420F00B6
:10316800A00000200023014000200140002201406F
:1031780090F83C30012B14D003689A6822F00102C1
:103188009A609B68DB0707D4036C23F4885323F009
:10319800010343F001030364002380F83C30184620
:1031A80070470220704703689A68520570B5044654
:1031B8000D460BD59B68DE0508D5036C43F020034C
:1031C8000364002380F83C30012070BDFFF778FECF
:1031D800064623681A6891070CD56FF012021A6028
:1031E800226C42F4007222649A6812F0405F17D091
:1031F8000020EAE7681CEDD065B923681B6813F066
:103208000203E6D1226C84F83C3042F004022264C6
:103218000320DAE7FFF754FE801BA842EDD8D8E771
:10322800227E002AE4D1DA6A12F4700F02D09B6879
:103238005A05DDD4236C23F480732364236CDB04E8
:10324800D6D4236C43F001032364D1E70368D86C18
:1032580070470000F7B50023019390F83C30012B2C
:1032680005467CD0012380F83C3008682B688E68BE
:10327800092884B230D904EB4402DF681E3A4FF0C3
:10328800070C0CFA02FC27EA0C07DF60DF6806FA75
:1032980002F23A43DA604968062901EB81022AD82A
:1032A800596B053A1F26964021EA06015963596B66
:1032B80004FA02F20A435A632A4A934207D11228AF
:1032C80034D1D2F8043343F48003C2F80433002025
:1032D80085F83C0003B0F0BD1A6900EB400C0727E5
:1032E80007FA0CF722EA07021A611A6906FA0CF6BD
:1032F80016431E61CFE70C294FF01F010BD81E6B38
:10330800233A914026EA01011963196B04FA02F283
:103318000A431A63D0E7DE6A413A914026EA01017E
:10332800D962D96A94400C43DC62C5E7A0F1100366
:10333800012BCCD80C4A5368102843F4000353607F
:10334800C5D10A4B0A4A1B68B3FBF2F30A2253435E
:103358000193019B002BBAD0019B013BF8E70220A7
:10336800B8E700BF0020014000230140A000002072
:1033780040420F00006C70470749CA6822F4E062B7
:103388000302120403F4E063120C134343F0BF6317
:1033980043F40033CB60704700ED00E0164B30B5C6
:1033A800DC68C4F30224C4F10703251D042B28BFDD
:1033B8000423062D4FF0FF358CBF033C002405FA8B
:1033C80003F321EA0303A54022EA0502A3400028EB
:1033D80043EA0203ACBF00F16040084A4FEA031316
:1033E800B8BF00F00F00DBB2AABF00F5614013546C
:1033F80080F8003330BD00BF00ED00E014ED00E0C0
:10340800002807DB044A4109012300F01F0083401C
:1034180042F82130704700BF00E100E000280CDBD3
:103428004309064900F01F0020330122824041F879
:103438002320BFF34F8FBFF36F8F704700E100E089
:103448000138B0F1807F0BD24FF0E023054A586174
:10345800F02182F823100020072298611A61704732
:103468000120704700ED00E0002808DB430904490B
:1034780000F01F0001226033824041F8232070478A
:1034880000E100E0704708B5FFF7FCFF08BD704792
:1034980010B5044650B1437903F0FF0213B9027125
:1034A800FFF7F5FF01236371002010BD0120FCE741
:1034B80010B5044640B10223037104F097FC0020C4
:1034C80020616071207110BD0120FCE710B5012357
:1034D80058B1046801F01001226803FA01F122EAE8
:1034E800010222600371002010BD1846FCE770B588
:1034F8000446866DFFF7E4FC94F83530022B054648
:1035080006D0802363650120002384F8343070BD21
:1035180023681A6822F016021A605A6922F080029B
:103528005A61226C0AB9A26C1AB11A6822F0080210
:103538001A601A6822F001021A602368186810F0ED
:10354800010007D1E26D3F239340B360012384F863
:103558003530D9E7FFF7B4FC401B0528EDD9202307
:103568000320636584F83500CEE790F83530022BE8
:1035780003D080234365012070470268052380F843
:103588003530136823F0010313600020704790F86A
:10359800350070472DE9F74FDFF8A491664A0023FC
:1035A8000D6801249C4004EA0506AC4340F0AF8056
:1035B8004D68032705F003044FEA430807FA08FC9F
:1035C800671E012F6FEA0C0C34D8876807EA0C0EC7
:1035D800CF6807FA08F747EA0E078760476827EABF
:1035E800060EC5F300179F4047EA0E074760C768F5
:1035F80007EA0C0E8F6807FA08F747EA0E07022C4D
:10360800C76019D14FEAD30A00EB8A0A03F0070B07
:10361800DAF820704FEA8B0B4FF00F0E0EFA0BFE04
:1036280027EA0E0E0F6907FA0BF747EA0E07CAF8E2
:10363800207001E0032CDAD1076804FA08F407EADD
:103648000C073C4315F4403F046060D0002401940B
:10365800D9F8444044F48044C9F84440D9F8444077
:1036680023F0030707F1804704F4804407F59C37EB
:10367800019403F0030C019CD7F808E04FEA8C0C86
:103688000F2404FA0CF42EEA040E2C4CA04245D068
:1036980004F58064A04243D004F58064A04241D080
:1036A80004F58064A0423FD004F58064A0423DD078
:1036B80004F58064A0423BD004F58064A04239D070
:1036C80004F58064A04214BF0824072404FA0CF40B
:1036D80044EA0E04BC609468F74315F4801F0CBFDD
:1036E8003C4034439460D46815F4001F0CBF3C4040
:1036F8003443D460546815F4003F0CBF3C40344355
:1037080054601468ED0354BF3C40344314600133E3
:10371800102B7FF445AF03B0BDE8F08F0024D5E748
:103728000124D3E70224D1E70324CFE70424CDE71B
:103738000524CBE70624C9E7003C0140000002400D
:1037480000380240044A5169014208B502D050616C
:1037580004F046FD08BD00BF003C01402DE9F846D5
:1037680006460F4691461D464FEA114A3368BAF19C
:10377800010F0CBF5C699C6927EA0404A4B2B4FA7F
:1037880084F46409A14501D0002025E06A1CEED02C
:10379800FFF796FB089BC01AA84201D8002DE5D177
:1037A8003368BAF1010F0CBF5B699B6927EA030311
:1037B8009BB2B3FA83F35B099945D7D10023202242
:1037C800336386F83D2086F83E30326C86F83C300C
:1037D80042F0200232640120BDE8F88670470000FC
:1037E80070B5044608B9012070BD90F83D3003F06B
:1037F800FF021BB980F83C20FFF7F0FF242384F870
:103808003D3023681A6822F001021A601A6842F4EF
:1038180000421A601A6822F400421A6002F0D6F8D0
:103828003F4B65689D4294BF3E4B3F4B98428CBFCF
:1038380000230123002BD6D12268394E51683B4B17
:10384800B0FBF3F321F03F011943B542516088BF43
:103858004FF49676116A88BF734321F03F0184BF05
:103868004FF47A76B3FBF6F301330B431362D16955
:10387800431E2B4821F44F41854221F0FF0132D8E5
:103888006D0040F6FC70B3FBF5F30133034242D000
:10389800C3F30B031943D161D4E90730116803431B
:1038A80021F0C0010B4313609168D4E9030321F4AC
:1038B8000341034321F0FF010B439360D4E9053032
:1038C800D168034321F0FF010B43D360136843F031
:1038D8000103136000202023206484F83D30206316
:1038E80084F83E0080E7A06850B905EB4505B3FBB6
:1038F800F5F30133C3F30B037BB143F40043C9E78A
:1039080019206843B3FBF0F30133C3F30B0323B16E
:1039180043F44043BEE70423BCE70123BAE700BFF2
:10392800A08601007F841E00FF083D0040420F0072
:10393800704710B5044698B10268242380F83D30DA
:10394800136823F001031360FFF7F2FF00202064DF
:1039580084F83C0084F83D00206384F83E0010BDE4
:103968000120FCE72DE9F04F044685B01F46884644
:103978009246FFF7A5FA94F83D30202B054603D070
:10398800022005B0BDE8F08F00904D4919230122AF
:103998002046FFF7E3FE0028F2D194F83C30012BD3
:1039A800EED0012384F83C302368DFF814B11A689C
:1039B800D0075EBF1A6842F001021A601A6822F442
:1039C80000621A60242384F83D3000263D4B2664AB
:1039D80008F0FE08E3622268136843F480731360FA
:1039E8004FF001113B46009500222046FFF7B6FE36
:1039F800236838B11B68D90544BF4FF400732364AA
:103A08000320BEE7C3F81080FFF75AFA23685A6903
:103A18005B690546C2F34002C3F380234FF0A00957
:103A280094F83D10A0291CD123684FF0200984F890
:103A38003D905A6992072BD51A68214942F40072C1
:103A48001A60002203925A6903929B690393039BAD
:103A58000095192301222046FFF780FE98B1012026
:103A68008FE71343E0D1FFF72BFA401BB84200D889
:103A78000FB984F83D9023685A695B69C2F3400224
:103A8800C3F38023CCE784F83D9084F83C0078E7C2
:103A98001A6842F400721A606FF480625A615946DB
:103AA8000095192301222046FFF758FE0028D6D199
:103AB800013656458FD384F83D9084F83C00CEE714
:103AC800020010000000FFFFF7B50025044600952E
:103AD800019594F83D500898202D02D0022003B09B
:103AE800F0BD25682E68B60503D4082801D0012842
:103AF8001BD1284E46F2A8173668B6FBF7F61927E9
:103B08007E430196019E013E0196019E56B92023EF
:103B1800266384F83D3084F83E60236C43F020032C
:103B28002364DBE7AE69B707ECD494F83C60012E58
:103B3800D4D02E68F6075EBF2E6846F001062E60C8
:103B48002E6826F400662E60212684F83D60102633
:103B580084F83E60002626646385638DE0626164B4
:103B68002385236B0093009B6262112B05D1B0F56E
:103B78002A0F02D0B0F12A4F03D12B6843F4807387
:103B88002B60002084F83C006B6843F4E0636B60B2
:103B9800A5E700BFA0000020F7B500250446009562
:103BA800019594F83D500898202D02D0022003B0CA
:103BB800F0BD25682E68B60503D4082801D0012871
:103BC8001BD1374E46F2A8173668B6FBF7F6192709
:103BD8007E430196019E013E0196019E56B920231F
:103BE800266384F83D3084F83E60236C43F020035C
:103BF8002364DBE7AE69B707ECD494F83C60012E88
:103C0800D4D0012684F83C602E68F6075EBF2E6883
:103C180046F001062E602E6826F400662E602226E5
:103C280084F83D60102684F83E600026266463858B
:103C3800638DE06261642385236B0093638D626208
:103C48009BB2022B24D1202801D0102820D1009B20
:103C5800122B2B681DD123F480632B602B6843F44F
:103C680000632B604FF44072009B122B05D1B0F516
:103C78002A0F02D0B0F12A4F03D12B6843F4807386
:103C88002B60002084F83C006B6813436B608EE760
:103C98002B6843F480632B604FF4E062E4E700BFD5
:103CA800A000002037B5044690F83D0000F0280039
:103CB800282830D100292CD0002A2AD094F83C009A
:103CC800012828D025682868C0075EBF286840F00A
:103CD80001002860286820F400602860292084F802
:103CE8003D00202084F83E00002020646285628D1B
:103CF800E36201906B690193AB69019384F83C001E
:103D0800019B6B68616243F4E06322856B6003B0DA
:103D180030BD0120FBE70220F9E737B5044690F8EB
:103D28003D0000F02800282830D100292CD0002A96
:103D38002AD094F83C00012828D025682868C007B4
:103D48005EBF286840F001002860286820F4006001
:103D580028602A2084F83D00202084F83E000020B6
:103D680020646285628DE36201906B690193AB699F
:103D7800019384F83C00019B6B68616243F4E06343
:103D880022856B6003B030BD0120FBE70220F9E714
:103D980090F83D30202B14D1282380F83D3003685B
:103DA8001A68D2075EBF1A6842F001021A601A68E0
:103DB80042F480621A605A6842F440725A600020E5
:103DC80070470220704770477047704790F83D2051
:103DD80008B5036DD2B283B9C36C0268012B836C3A
:103DE80005D1DBB21361036D0233036508BDC3F36C
:103DF80007231361036D0133F7E7036D012B03D12B
:103E0800836C0268DBB2F4E7036D022B2FD1222A00
:103E180005D10268136843F480731360EAE7438DA1
:103E28009BB263B1212A0AD1436A026813F8011BC5
:103E380011614362438D013B9BB24385D6E7438DB5
:103E48009BB2002BD2D1212AD0D10268516821F42B
:103E5800E0615160116841F4007111602022036330
:103E680080F83D2080F83E30FFF7AFFFBEE70368DB
:103E78005A69120644BF00221A61B7E770477047B3
:103E880037B5002301932D4B806B1B6890F83D20BC
:103E980046F2A811B3FBF1F323214B4301930368C6
:103EA800D2B2019941BB016C41F020010164446B1D
:103EB8000CB10021E163816B09B10025CD631D6858
:103EC80025F480651D600025458504B1256501B18F
:103ED8000D65196821F00101196090F83D106029FD
:103EE80011D1202380F83D30002380F83E30036450
:103EF800FFF7C5FF03B030BD019901390191196879
:103F08008905CED4D3E702F02802282A0ED11968F1
:103F180041F001011960196841F4806119600023BA
:103F2800036380F83D20FEF755FFE3E7202380F880
:103F38003D30002380F83E30F5E700BFA0000020A8
:103F480010B590F83D2090F83E30102BD9B20446B9
:103F58000368D2B201D0402913D1222A11D119689D
:103F680021F400611960596811F4006106D1602AD2
:103F78001EBF202284F83D2084F83E1000222263D0
:103F880007E002F028012829EDD10022226384F8F5
:103F98003D105A6812F400624FD05A68606B22F4E0
:103FA80000625A6090F83530012B374B2BD00365EF
:103FB800FFF7DBFA50B12268606B136823F0010346
:103FC8001360202384F83D30036D9847236C19074C
:103FD8001FBF2268536823F4E063536094F83D30B0
:103FE800226C5207DBB20DD5282B0BD1274BE3628D
:103FF800202200232363204684F83D2084F83E30A5
:10400800FEF7BDFE10BDA06B0365FFF7AEFA0028F2
:10401800DCD023685A69510605D51A69636A1A7093
:10402800636A013363622268A06B136823F001039B
:104038001360202384F83D30C6E794F83D106029CA
:1040480015D1202184F83D1022645A69520605D5FD
:104058001A69636A1A70636A0133636222681368B3
:1040680023F0010313602046FFF709FFAEE75A6902
:10407800500605D51A69636A1A70636A0133636268
:104088002046FEF7A7FEA1E7893E00080000FFFFD3
:10409800F0B5036804465A68C66A90F83E0094F87A
:1040A8003D1010288FB0C5B2C9B202D0402D40F0E3
:1040B800DD829F69586910F0010F07D1B6F52A0F04
:1040C80002D0B6F12A4F51D10FB0F0BD96054DD5AB
:1040D800E26AB2F52A0F0CD10122E26294F83E207E
:1040E800402A11D1226D52B9626C02F0FE021A61A7
:1040F800EAE7E26AB2F12A4FF0D10822EDE7626CF2
:1041080042F00102D2B2F2E72269B2F5804F1AD129
:1041180094F83D20212A626C11D102F0FE021A6146
:10412800626B0AB1D26B2AB9A26B002ACCD0D26BCF
:10413800002AC9D05A6842F400625A60C4E742F0C3
:104148000102D2B2EBE7226D32B9626CD21102F0F1
:10415800060242F0F002CAE7226D012AB4D1626C6D
:10416800D21102F0060242F0F102C0E7060703D5B9
:10417800960501D5626CE4E7860740F1E88096056C
:1041880040F1E58094F83E10E26A256B94F83D0012
:104198002228C9B240F0D380206D40B9402906D109
:1041A80001905A6901929B690193019B8CE7216DEB
:1041B80089B92069B0F5404F0DD102915A69029230
:1041C8009A690292029A1A6842F480721A60236D00
:1041D8000133236578E7618D89B251B903915A6932
:1041E80003929A690392039A1A6842F400721A6059
:1041F80019E0618D89B2012949D112F5803F1BD19F
:104208001A6822F480621A605A6812F400620CD0AC
:104218001A6822F480621A60002204925A69049291
:104228009B690493049B0023D3E705925A6905927E
:104238009A690592059AD7E7082A1CD0202A1AD02D
:10424800122D0DD1012A16D11A6822F480621A6043
:10425800002206925A6906929B690693069BE2E73A
:10426800102AF1D8824941FA02F2D707ECD41A6829
:1042780042F48062EBE71A6822F480621A60002236
:1042880007925A6907929A690792079AACE7618D73
:1042980089B2022930D1102A03D87649D140CE07F5
:1042A80015D4196821F480611960196841F4006116
:1042B800196059680D0514D5202A1AD8072A0AD872
:1042C800012A0ED15A6842F480525A6009E01968EE
:1042D80041F48061ECE7A2F10801674ACA40D007BF
:1042E800F0D4002208925A6908929B690893089BA7
:1042F80099E712F5803FE4E7196841F48061196095
:104308005968090510D5202A16D8072A06D8012A7F
:104318000AD15A6842F480525A6005E0A2F10801B5
:10432800554ACA40D207F4D4002209925A69099220
:104338009B690993099B76E712F5803FE8E700221D
:104348000A925A690A929B690A930A9BBCE67F07FC
:1043580040F194805E6836053FF5B6AE070600F07A
:1043680004063ED550053CD5002E3DD194F83D209D
:10437800258D94F83E10E06AD2B2C9B2C5B9212A97
:1043880018D1082858D0202856D010F5803F53D08F
:104398005A6822F4E0625A6011232363002384F8E8
:1043A8003E30202384F83D302046FFF70CFD8BE695
:1043B800212A05D040297FF487AE222A7FF484AED3
:1043C800628D92B21AB95A6822F48062B5E694F8FE
:1043D8003E20402A16D120460FB0BDE8F040FFF736
:1043E800F5BC002E3FF470AE97057FF56DAE212920
:1043F80039D1E16A94F83D20212A7FF465AE628DB7
:1044080092B24AB1626A12F8011B19616262638D45
:10441800013B9BB2638557E608290DD020290BD0B4
:1044280011F5803F08D0596821F4E06159601123E3
:10443800236384F83E20B4E75A6822F4E0625A60A5
:104448001A6842F400721A6000232022236384F859
:104458003D2094F83E2084F83E30402A2046A4D1DE
:10446800FFF7B3FC30E6402D7FF42EAEB3E700BF74
:10447800EBFFFEFF140001000101000159680E0561
:104488003FF522AE450600F0040140F18680500554
:1044980040F18380002940F0838094F83D20222A4F
:1044A8007FF412AEE06A628D92B2032A14D91A69B7
:1044B800636A1A70636A01336362638D013B9BB25E
:1044C8006385638D9BB2032B7FF4FEAD226853682E
:1044D80023F480635360F7E5E56A022D3FF473AF78
:1044E800012A3FF670AF7A4A0B91126846F2A8117A
:1044F800B2FBF1F202EB82020B920B9A013A0B9299
:104508000B99D1B9226C42F0200222645A6822F435
:10451800E0625A601A69636A1A70636A01336362F7
:10452800638D013B9BB26385202384F83D30204690
:1045380084F83E10FEF74EFCC6E51A6812F40072C5
:10454800DBD1196821F480611960596821F4E061B0
:1045580059601969636A1970636A01336362638D0C
:10456800013B9BB26385202384F83D3094F83E30AC
:1045780084F83E20402B04D122632046FFF77EFCBE
:10458800A2E5082801D0202801D1002300E0122349
:1045980023632046FFF718FC96E500293FF494AD05
:1045A80092057FF591ADE26A608D616A80B2042858
:1045B80009D15A6822F480625A601B690B70636AD9
:1045C8000133636223E7608D80B203280CD15868F9
:1045D800042A20F480605860EFD0022AEDD01A68CF
:1045E80022F480621A60E8E7608D80B20228E4D184
:1045F800042A33D007D8012A07D0022A2ED01868F7
:1046080040F4007004E0102AF9D1186820F48060A2
:1046180018601B690B70616A4B1C6362638D013BF8
:104628009BB2638523681B694B70636A21680133F9
:104638006362638D013B9BB263854B6823F44073CF
:104648004B60202384F83D3094F83E30402B4FF0E7
:10465800000384F83E3005D123638EE7186840F4E0
:104668008060D5E7082A90D0202A8DE7206C10B307
:104678005869002587072DD596052BD5226C02B1E0
:104688009D6994F83D2002F02802282A16D15A681C
:1046980022F480625A602F0685F004014FF000036F
:1046A80054BFA289228B84F83C30C1F38001204694
:1046B800FEF731FB08E59D695869DBE700220C929B
:1046C80059690C919B690C930C9B84F83C20FBE482
:1046D800A0000020C60640F1B180950540F1AE80EB
:1046E80094F83D505A6822F4E0625A6000220D9214
:1046F8005A690D921A6842F001021A600D9A1A68F6
:1047080022F480621A605A681005EDB220D505F0CF
:10471800F702222A4AD1A06B0268526892B26285D7
:10472800628D92B21AB1226C42F0040222645A6875
:1047380022F400625A60FEF72AFF012808D0A06B15
:10474800794B0365FEF711FF10B1A06B036D984715
:10475800638D9BB213B323685A69510709D51A6947
:10476800636A1A70636A01336362638D013B9BB2AB
:10477800638523685A69520609D51A69636A1A70EB
:10478800636A01336362638D013B9BB26385638D0A
:104798009BB21BB1236C43F004032364236C13B353
:1047A80020460FB0BDE8F040FFF7CABB606B026857
:1047B800526892B26285628D92B21AB1226C42F04E
:1047C800040222645A6822F400625A60FEF7DFFE8F
:1047D8000128BDD0606B544B0365FEF7C6FE002868
:1047E800B6D0606BB2E72A2D06D12363282384F85C
:1047F8003D302046FEF7D8FA94F83D30282B0CD1EE
:104808004A4BE362202200232363204684F83D209C
:1048180084F83E30FEF7B3FA56E4236B222B02D01D
:10482800222D7FF451AC00232022236384F83D20FD
:1048380084F83E302046FEF7B7FA45E401F0F70168
:10484800212900F0040535D1070627D5560525D5B9
:104858003DBB94F83D00628D92B2C0B2002A3FF48D
:1048680033AC626A12F8015B1D616262628D013AC3
:1048780092B26285628D92B2002A7FF425AC292813
:104888007FF422AC5A6822F480625A60282321639C
:10489800204684F83D30FEF799FA15E4002D3FF4E0
:1048A80013AC95057FF510AC628D92B2002A3FF4E7
:1048B8000BACA7E5400627D5510525D53DBB94F897
:1048C8003D20618D89B2D2B200293FF4FDAB196950
:1048D800636A1970636A01336362638D013B9BB23B
:1048E8006385638D9BB2002B7FF4EEAB2A2A7FF49D
:1048F800EBAB2268536823F480635360222323635D
:10490800282384F83D3095E7002D3FF4DDAB920570
:104918007FF5DAAB628D92B2002A3FF4D5AB1A6903
:10492800636A1A704BE600BF893E00080000FFFF6B
:10493800F8B503685F695E6890F83E2017F48075E3
:104948000446D2B206D016F480751EBF6FF480718B
:1049580059610125B80506D5F10542BF6FF400710C
:1049680045F002055961780536D5F10534D5608DD5
:1049780094F83D10D4F830C0202A80B2C9B25FD173
:1049880000285DD101F0F700212804D0282957D14B
:10499800BCF1210F54D194F83D20E16A0829D2B224
:1049A80001D020292AD1282A28D12E4AE2625A6821
:1049B80022F4E0625A606FF480625A611A6822F445
:1049C80080621A60002320222363204684F83D2059
:1049D80084F83E30FEF7D3F93A053FD5F3053DD5C7
:1049E80023686FF4006245F008055A61236C2B4375
:1049F80023642046BDE8F840FFF7A2BA212A1BD15C
:104A08001849E16222630021202284F83D2084F8BD
:104A18003E105A6822F4E0625A606FF480625A616C
:104A28001A6822F480621A605A69100648BF196130
:104A38002046FEF7CBF9CFE76FF480625A61CBE7E7
:104A48006FF48061102A596145F0040501D0402AAD
:104A5800C2D11A6842F400721A60BDE7002DC5D1B0
:104A6800F8BD00BF0000FFFF90F83D007047006CE4
:104A78007047F7B5044610B390F89534056803F00D
:104A8800FF021BB980F8942405F020FC0323B5F13C
:104A9800A04F84F8953404BF0023A371206802F066
:104AA800A7FC237C8DF80030251D95E80E002068B2
:104AB80002F0E3FB014630B1022384F89534012566
:104AC800284603B0F0BD206802F098FC0028F3D116
:104AD800267904F1140301270246C1B28E4203F17C
:104AE80024031BD8002104F515730A46C8B2864270
:104AF80003F1240320D8237C8DF8003095E80E00BC
:104B0800206802F0F7FC05460028D5D1012360741F
:104B1800206884F8953403F031F8D1E723F80A0CBB
:104B280043E9072203F8237C03F8241C03F8202C0C
:104B380043F8142C0130D0E743E9072203F8232C6B
:104B480003F8240C03F8202C43F8142C0131CDE78A
:104B580010B50446006894F89434012B15D001234D
:104B680084F89434C3685B0606D5637B012B02BFC7
:104B7800836B43F48033836302F034FC206802F0D3
:104B8800EFFF002084F8940410BD0220FCE710B564
:104B980090F89424012A04460AD0012280F894242B
:104BA8004174006802F0CCFF002084F8940410BD22
:104BB8000220FCE770B501F00F0606EBC60411F001
:104BC800800F05464FEA84044FF0240020D000FBF4
:104BD800065004F11401012429444475C2F30A0261
:104BE8008A604A780E700B7102B14E83022B04BFA3
:104BF80000234B7195F89434012B12D001232868B7
:104C080085F8943402F03BFD002085F8940470BDCB
:104C180000FB065004F515710024294480F855421C
:104C2800DCE70220F3E710B5044601F00F0000EBC3
:104C3800C00311F0800F4FEA83034FF0240215D010
:104C480002FB004203F1140101232144537508704B
:104C580094F89434012B12D00123206884F89434FA
:104C680002F04CFD002084F8940410BD02FB0042C1
:104C780003F515710023214482F85532E7E7022035
:104C8800F3E770B501F00F05242404FB050104FBCC
:104C98000504C4E998230023C4F8683284F855321F
:104CA80084F85452164682790068012A01F5157174
:104CB80008BFC4F8706202F0CDFD002070BD01F09D
:104CC8000F01242303FB0100D0F86802704770B578
:104CD80001F00F05242404FB050104FB0504C4E9C5
:104CE80008230023A362012363752575164682797C
:104CF80000689A4201F1140108BF266302F0AAFD78
:104D0800002070BD38B5037901F00F05AB420446A9
:104D18002BD311F0800F4FF024001DD000FB05416C
:104D280000FB054001231431437501238B700D707E
:104D380094F894249A421AD0206884F8943402F0A3
:104D4800ABFE2DB9A179206804F29C4202F064FF01
:104D5800002084F8940438BD00FB01431A4603F58B
:104D68001571002382F85532DFE70120F3E70220AE
:104D7800F1E738B5037901F00F029342044629D3CD
:104D880002EBC20311F0800F4FEA83034FF02400B7
:104D980017D000FB024003F114010123214443759D
:104DA80000258D700A7094F89434012B14D00123D7
:104DB800206884F8943402F09AFE84F894542846C3
:104DC80038BD00FB024003F515710023214480F82B
:104DD8005532E5E70120F3E70220F1E701F00F0380
:104DE80003EBC3030A064FEA83034CBF03F1140124
:104DF80003F515710144006802F0D6BC2DE9F04FA7
:104E0800066889B00446304602F0F4FE0390002894
:104E180040F05881206802F0BFFE002800F052815F
:104E2800D6F808382068C3F30D23C4F8D43402F048
:104E3800B3FE870748BF2268206842BF536903F062
:104E48000203536102F0A8FEC00606F500652DD5E1
:104E58002268936923F010039361D6F8208008F440
:104E6800F013B3F5802F08F00F0740F02E8147F6B6
:104E7800F07318EA030F14D0242303FB0747C8F381
:104E88000A19D7F860124A46304602F0E5FDD7F80D
:104E980060324B44C7F86032D7F868324B44C7F8E1
:104EA80068322268936943F010039361206802F026
:104EB80073FE010300F11C81206802F06DFE4203BD
:104EC8000DD5206802F074FE2746049006F5106B95
:104ED8004FF0000A049B2068002B40F0D381206823
:104EE80002F05AFE002813DA6B6823F001036B60A6
:104EF80094F8CC34012B40F06B82002184F8CC1458
:104F0800204600F0E6FA2268536903F00043536133
:104F1800206802F041FE01050AD5AB68DA0702D520
:104F2800204605F095FA2268536903F4006353613B
:104F3800206802F031FEC30433D56B68206823F083
:104F480001036B60102102F089FA207906F51063DD
:104F58004FF67F31039A904200F23E82EB6943F0AC
:104F68000113EB61E37B002B00F05282D5F884300B
:104F780043F00B03C5F884306B6C43F00B036B6490
:104F8800D6F80038206823F4FE63C6F8003804F227
:104F98009C42A17902F040FE2268536903F48053D1
:104FA8005361206802F0F8FD870416D5206802F0E6
:104FB80025FE206802F058FBE071276800F000FD2C
:104FC800E2790146384602F09DF9204605F02FFAAD
:104FD8002268536903F400535361206802F0DCFD32
:104FE800000707D5204605F01EFA2268536903F02A
:104FF80008035361206802F0CFFD010600F1138217
:10500800206802F0C9FDC2020CD5A04606F5126957
:1050180001272379BB4200F21F822268536903F4F7
:1050280080135361206802F0B7FD83022DD594F8F0
:1050380004E0234606F5326001218E4520D993F815
:105048007CC20268BCF1010F40F01C82002A80F289
:105058001982D4F8D47402F4803207F00107BA42F6
:1050680040F0108283F87BC2B26942F08002B261DC
:105078007269170600F106826B6843F400736B606F
:105088002268536903F400135361206802F084FD19
:10509800410007D5204605F015FA2268536903F048
:1050A80080435361206802F077FD42070AD52368E0
:1050B8005D686B0702D5204605F008FA2268536838
:1050C8002B43536009B0BDE8F08FB3F5402F7FF450
:1050D800E8AE082204F29C41304602F0BDFC2423CD
:1050E80003FB0747C8F30A18D7F868324344D6E6E3
:1050F800206802F055FD06F530680490A2460027A6
:10510800049B2068002B3FF4D7AE049BDB0778D5BF
:105118005FFA87FB594602F053FD10F0010F8146F4
:105128001FD020680123C8F8083094F806C0016C25
:1051380000F5306303EB4713BCF1010F9A6840F0A8
:105148008B8012F0080F07D0AF48814209D91204AA
:1051580007D54FF4004203E012F0200F5AD0202266
:105168009A6019F0080F21D00823C8F8083023687E
:10517800A5491A6C03F5306303EB47138A42986814
:1051880004D9010444BF4FF40040986020460592BA
:1051980005F032F9059A9C498A4207D9A179012973
:1051A80004D1206804F29C4202F036FD19F0100F79
:1051B8001CBF1023C8F8083019F0020F14D0736907
:1051C8001A0642BF6B6843F480636B609AF85732E3
:1051D800012B06D100238AF857325946204605F09C
:1051E80069F90223C8F8083019F0200F1CBF2023E2
:1051F800C8F8083019F4005F1CBF4FF40053C8F812
:105208000830049B5B080137049308F120080AF171
:10521800240A75E7DFF8F0C1614501D9120498D472
:105228001A69DAF87432C2F312029B1ACAF86832A1
:105238006FB9D4F864222AB904F29C42012102F021
:10524800EBFC04E0D4F860221A44C4F86022594602
:10525800204605F0D7F884E7DFF8B0C1614507D1EB
:1052680011043FF576AF9006F1D520229A60EEE75B
:10527800002FECD1D4F86432002BE8D104F29C4220
:105288003946DCE7049BDB0740F199805FFA8AF333
:105298001946059302F09DFC10F0010F80461FD0BF
:1052A8006B6B01210AF00F0201FA02F223EA0203F2
:1052B8006B63CBF80810A17901290DD1D7E9072331
:1052C80013443B62BAF1000F06D1636A23B9206820
:1052D80004F29C4202F0A0FC0599204605F09BF8D8
:1052E80018F0080F1CBF0823CBF8083018F0100F6F
:1052F8001CBF1023CBF8083018F0400F1CBF402308
:10530800CBF8083018F0020F0FD05146304602F0A3
:10531800A5F8FB7D012B05D100230599FB752046D7
:1053280005F0CCF80223CBF808302368069318F070
:10533800800F44D0D7E909329A4240D8A3EB02083B
:10534800FB69984528BF9846069B03F5106308F14A
:10535800030803EB4A134FEA98080793079B9969D8
:1053680089B24145D7E9093227D393420BD8069B26
:105378000AF00F00D3F834280121814022EA010203
:10538800C3F834281BE0A3EB0209FB69059A0698C9
:10539800994528BF9946A3790093396A1FFA89F37A
:1053A80002F044FA3B6A4B443B62BB6A09F10308CA
:1053B8004B444FEA9808BB62D0E79342D7D9049B85
:1053C8005B080AF1010A049324370BF1200B81E5ED
:1053D800204605F055F896E599601A6822F40012FF
:1053E8001A60C3F80812D3F8002222F40012C3F896
:1053F8000022D3F8002242F00062C3F80022039A88
:10540800013203922033A5E50A30544F0A31544F34
:105418006B6943F4005343F02B036B612B6943F032
:105428000B032B61ACE5B36923F08003B36101275B
:1054380004F257284FF024092379BB427FF6E0ADE8
:1054480009FB07F318F80330012B03D1F9B2204602
:10545800FFF7C4FC0137EFE798F83C30D9F8002093
:10546800012B09D1002A07DA67F07F0188F83B3061
:10547800C9B22046FFF7B2FC013708F1240809F148
:105488002009C6E5013124332030D6E5006870B51F
:10549800436A120419B913438362002070BD846AF9
:1054A8004E1E03EB14430024B44205D33F3100EBF6
:1054B800810013434360F0E704F1400500EB8505E4
:1054C80001346D6803EB1543EEE703680020596269
:1054D800704770472DE9F341044640B30368DE077F
:1054E80010D423689D075BD42368190700F19D80B9
:1054F80023685A0700F1BD80A369002B40F024817E
:1055080000202CE08D4B9A6802F00C02042A07D088
:105518009A6802F00C02082A0BD15B68590208D578
:10552800864B1B689A03DCD56368002BD9D1012010
:1055380015E06368814DB3F5803F13D12B6843F4C0
:1055480080332B60FDF7BCFC7C4E054633689B031B
:10555800C7D4FDF7B5FC401B6428F7D9032002B077
:10556800BDE8F081B3F5A02F04D12B6843F4802364
:105578002B60E3E72A6822F480322A602A6822F442
:1055880080222A60002BDDD1FDF79AFC06462B68A5
:105598009F03A6D5FDF794FC801B6428F7D9DDE7A7
:1055A800664B9A6812F00C0F07D09A6802F00C024A
:1055B800082A11D15B685D020ED4604A1368990706
:1055C80002D5E368012BB2D11368216923F0F803EF
:1055D80043EAC103136087E7E268594BB2B101227D
:1055E8001A60FDF76DFC554D06462B689B0707D5DD
:1055F8002B68226923F0F80343EAC2032B6073E7A0
:10560800FDF75EFC801B0228EFD9A7E71A60FDF7BB
:1056180057FC4A4E054633689F077FF565AFFDF78F
:105628004FFC401B0228F6D998E76269444B82B1C7
:105638000122C3F8802EFDF743FC404E0546736FE8
:105648009B073FF555AFFDF73BFC401B0228F6D9F9
:1056580084E7C3F8802EFDF733FC384E0546736F98
:105668009F077FF545AFFDF72BFC401B0228F6D9B5
:1056780074E7324B1A6C12F0805228D101921A6CDE
:1056880042F080521A641B6C03F080530193019B13
:1056980001272C4D2B68D8051BD5A368274D012B56
:1056A80027D12B6F43F001032B67FDF709FC234E2D
:1056B800054641F28838336F9A0739D5002F3FF4F1
:1056C8001BAF1E4A136C23F08053136414E70027A2
:1056D800DFE72B6843F480732B60FDF7F1FB064688
:1056E8002B68D905D9D4FDF7EBFB801B0228F7D925
:1056F80034E7052B04D12B6F43F004032B67D0E765
:105708002A6F22F001022A672A6F22F004022A6710
:10571800002BCAD1FDF7D4FB41F2883806462B6F1F
:105728009B07CBD5FDF7CCFB801B4045F7D915E788
:10573800FDF7C6FB401B4045BDD90FE700380240C6
:105748000000474200700040374DAA6802F00C0282
:10575800082A3ED0022B354B4FF000021A662BD197
:10576800FDF7AEFB06462B6899011FD4D4E9073232
:105778001343626A43EA8213E26A43EA0263A26A53
:105788005208013A43EA02436B60284B264D012236
:105798001A66FDF795FB04462B689A013FF5B0AEF3
:1057A800FDF78EFB001B0228F6D9D7E6FDF788FB2C
:1057B800801B0228D7D9D1E6FDF782FB04462B6867
:1057C8009B017FF59DAEFDF77BFB001B0228F6D9F8
:1057D800C4E6012B3FF4ABAE6B68E26903F48001C9
:1057E80091427FF4A4AE216A03F03F028A427FF41B
:1057F8009EAE616A47F6C0721A40B2EB811F7FF411
:1058080096AEA26A520803F44031013AB1EB024F56
:105818007FF48DAEE26A03F07063B3EB026F14BFDE
:10582800012000209BE600BF0038024000004742EC
:10583800134908B58B6803F00C03042B1CD0082B04
:105848001CD14A684B68496813F4800314BF0D489B
:105858000D48C1F3881118BF002302F03F02A1FBD5
:105868000001FBF779F9064B5B68C3F30143013389
:105878005B00B0FBF3F008BD0248FCE70248FAE71A
:1058880000380240001BB7000024F4002DE9F04165
:105898000D46044610B90120BDE8F081434B1A6853
:1058A80002F007028A4228D321688F072DD4C8073F
:1058B80040D43E4B1A6802F00702AA4265D8226813
:1058C80051076BD4130707D5394A2169936823F424
:1058D800604343EAC1039360FFF7AAFF344B354A9C
:1058E8009B68C3F30313D35CD840334B1860334B26
:1058F8001868FDF79BFA0020CEE7CAB21A701B6839
:1059080003F007038B42C6D1CEE7294B11F0040FF1
:105918001EBF9A6842F4E0529A600E0742BF9A6826
:1059280042F460429A609A68A06822F0F00202434A
:105938009A60BCE762681E4B012A1CD11B6813F4ED
:10594800003FA8D01A4EB36823F003031343B36093
:10595800FDF7B6FA41F288380746B368626803F083
:105968000C03B3EB820FA4D0FDF7AAFAC01B404585
:10597800F3D9032090E7911E01291B6802D813F080
:10598800007FDEE713F0020FDBE7EAB21A701B684C
:1059980003F00703AB427FF47EAF90E70449E06869
:1059A8008B6823F4E05303438B608BE7003C024091
:1059B80000380240F0CF0008A00000206C00002052
:1059C800014B1868704700BFA0000020044B054A2F
:1059D8009B68C3F38223D35C034A1068D84070479E
:1059E80000380240E8CF0008A0000020044B054A18
:1059F8009B68C3F34233D35C034A1068D8407047AE
:105A080000380240E8CF0008A00000200F23036000
:105A18000B4B9A6802F0030242609A6802F0F002A7
:105A280082609A6802F4E052C2609B68DB0803F463
:105A3800E0530361034B1B6803F007030B607047D7
:105A480000380240003C0240036A026A22F0010268
:105A5800026270B5446882690D6822F073022A43B5
:105A68008D6823F002032B430C4DA84203D005F5A3
:105A78008065A8420BD1CD6823F008032B43D1E9F8
:105A8800055624F44074354323F004032C43446042
:105A980082614A684263036270BD00BF0000014032
:105AA800036A026A22F48072026270B54468C269AD
:105AB8000D6822F073022A438D6823F4007343EAC9
:105AC80005230D4DA84203D005F58065A8420DD1E8
